{
  "contractName": "AutoFareCalculator",
  "abi": [
    {
      "constant": false,
      "inputs": [
        {
          "name": "source",
          "type": "string"
        },
        {
          "name": "destination",
          "type": "string"
        }
      ],
      "name": "calculateFare",
      "outputs": [
        {
          "name": "",
          "type": "uint256"
        }
      ],
      "payable": false,
      "stateMutability": "nonpayable",
      "type": "function"
    },
    {
      "constant": false,
      "inputs": [
        {
          "name": "location",
          "type": "string"
        }
      ],
      "name": "addLocation",
      "outputs": [],
      "payable": false,
      "stateMutability": "nonpayable",
      "type": "function"
    },
    {
      "inputs": [],
      "payable": false,
      "stateMutability": "nonpayable",
      "type": "constructor"
    }
  ],
  "bytecode": "0x6060604052341561000f57600080fd5b61031e8061001e6000396000f30060606040526004361061004c576000357c0100000000000000000000000000000000000000000000000000000000900463ffffffff1680633f32af65146100515780635fddb08814610105575b600080fd5b341561005c57600080fd5b6100ef600480803590602001908201803590602001908080601f0160208091040260200160405190810160405280939291908181526020018383808284378201915050505050509190803590602001908201803590602001908080601f01602080910402602001604051908101604052809392919081815260200183838082843782019150505050505091905050610162565b6040518082815260200191505060405180910390f35b341561011057600080fd5b610160600480803590602001908201803590602001908080601f0160208091040260200160405190810160405280939291908181526020018383808284378201915050505050509190505061016e565b005b60006014905092915050565b6000805480600101828161018291906101ad565b9160005260206000209001600083909190915090805190602001906101a89291906101d9565b505050565b8154818355818115116101d4578183600052602060002091820191016101d39190610259565b5b505050565b828054600181600116156101000203166002900490600052602060002090601f016020900481019282601f1061021a57805160ff1916838001178555610248565b82800160010185558215610248579182015b8281111561024757825182559160200191906001019061022c565b5b5090506102559190610285565b5090565b61028291905b8082111561027e576000818161027591906102aa565b5060010161025f565b5090565b90565b6102a791905b808211156102a357600081600090555060010161028b565b5090565b90565b50805460018160011615610100020316600290046000825580601f106102d057506102ef565b601f0160209004906000526020600020908101906102ee9190610285565b5b505600a165627a7a723058207898c6aa265fdf13cab0861d09b8d8866017fd41e64b85bdb41272233cebd1530029",
  "source": "pragma solidity ^0.4.4;\nimport \"./BaseFareCalculator.sol\";\n\ncontract AutoFareCalculator is BaseFareCalculator {\n  function AutoFareCalculator() {\n    // constructor\n  }\n\nfunction calculateFare ( string source, string destination ) returns (uint256) {\n  return 20;\n}\n\n}\n",
  "sourcePath": "/Users/ashokperiaswamy/Documents/Quality Thoughts/SmartContractSamples/FareContract/contracts/AutoFareCalculator.sol",
  "compiler": {
    "name": "solc",
    "version": "0.4.18+commit.9cf6e910.Emscripten.clang"
  },
  "schemaVersion": "1.0.1",
  "updatedAt": "2018-03-04T03:51:36.785Z"
}