{
  "contractName": "SavingsAccount",
  "abi": [
    {
      "constant": true,
      "inputs": [],
      "name": "number",
      "outputs": [
        {
          "name": "",
          "type": "uint256"
        }
      ],
      "payable": false,
      "stateMutability": "view",
      "type": "function"
    },
    {
      "constant": true,
      "inputs": [
        {
          "name": "",
          "type": "address"
        },
        {
          "name": "",
          "type": "uint256"
        }
      ],
      "name": "accounts",
      "outputs": [
        {
          "name": "balance",
          "type": "uint256"
        },
        {
          "name": "accountNo",
          "type": "uint256"
        },
        {
          "name": "auditStatus",
          "type": "uint8"
        },
        {
          "name": "actType",
          "type": "uint8"
        }
      ],
      "payable": false,
      "stateMutability": "view",
      "type": "function"
    },
    {
      "constant": false,
      "inputs": [
        {
          "name": "p",
          "type": "address"
        }
      ],
      "name": "createSavingsAccount",
      "outputs": [],
      "payable": false,
      "stateMutability": "nonpayable",
      "type": "function"
    },
    {
      "constant": false,
      "inputs": [
        {
          "name": "user",
          "type": "address"
        },
        {
          "name": "actType",
          "type": "uint8"
        }
      ],
      "name": "getAccountInfo",
      "outputs": [
        {
          "components": [
            {
              "name": "balance",
              "type": "uint256"
            },
            {
              "name": "accountNo",
              "type": "uint256"
            },
            {
              "name": "auditStatus",
              "type": "uint8"
            },
            {
              "name": "actType",
              "type": "uint8"
            }
          ],
          "name": "",
          "type": "tuple"
        }
      ],
      "payable": false,
      "stateMutability": "nonpayable",
      "type": "function"
    },
    {
      "constant": false,
      "inputs": [
        {
          "name": "p",
          "type": "address"
        }
      ],
      "name": "createCurrentAccount",
      "outputs": [],
      "payable": false,
      "stateMutability": "nonpayable",
      "type": "function"
    },
    {
      "inputs": [],
      "payable": false,
      "stateMutability": "nonpayable",
      "type": "constructor"
    }
  ],
  "bytecode": "0x606060405260008055341561001357600080fd5b6106e5806100226000396000f30060606040526004361061006d576000357c0100000000000000000000000000000000000000000000000000000000900463ffffffff1680638381f58a14610072578063875245811461009b5780638c41beaa14610122578063ae2793aa1461015b578063dc6a4b35146101b4575b600080fd5b341561007d57600080fd5b6100856101ed565b6040518082815260200191505060405180910390f35b34156100a657600080fd5b6100db600480803573ffffffffffffffffffffffffffffffffffffffff169060200190919080359060200190919050506101f3565b604051808581526020018481526020018360028111156100f757fe5b60ff16815260200182600181111561010b57fe5b60ff16815260200194505050505060405180910390f35b341561012d57600080fd5b610159600480803573ffffffffffffffffffffffffffffffffffffffff16906020019091905050610259565b005b341561016657600080fd5b61019e600480803573ffffffffffffffffffffffffffffffffffffffff1690602001909190803560ff16906020019091905050610378565b6040518082815260200191505060405180910390f35b34156101bf57600080fd5b6101eb600480803573ffffffffffffffffffffffffffffffffffffffff169060200190919050506104d2565b005b60005481565b60016020528160005260406000208181548110151561020e57fe5b9060005260206000209060030201600091509150508060000154908060010154908060020160009054906101000a900460ff16908060020160019054906101000a900460ff16905084565b60016000808282540192505081905550600160008273ffffffffffffffffffffffffffffffffffffffff1673ffffffffffffffffffffffffffffffffffffffff16815260200190815260200160002080548060010182816102ba91906105f1565b916000526020600020906003020160006080604051908101604052806103e881526020016000548152602001600060028111156102f357fe5b815260200160018081111561030457fe5b8152509091909150600082015181600001556020820151816001015560408201518160020160006101000a81548160ff0219169083600281111561034457fe5b021790555060608201518160020160016101000a81548160ff0219169083600181111561036d57fe5b021790555050505050565b610380610623565b600080600160008673ffffffffffffffffffffffffffffffffffffffff1673ffffffffffffffffffffffffffffffffffffffff1681526020019081526020016000209150600090505b81805490508110156104c95781818154811015156103e357fe5b906000526020600020906003020160020160019054906101000a900460ff16600181111561040d57fe5b84600181111561041957fe5b14156104bc57818181548110151561042d57fe5b90600052602060002090600302016080604051908101604052908160008201548152602001600182015481526020016002820160009054906101000a900460ff16600281111561047957fe5b600281111561048457fe5b81526020016002820160019054906101000a900460ff1660018111156104a657fe5b60018111156104b157fe5b8152505092506104ca565b80806001019150506103c9565b5b505092915050565b60016000808282540192505081905550600160008273ffffffffffffffffffffffffffffffffffffffff1673ffffffffffffffffffffffffffffffffffffffff168152602001908152602001600020805480600101828161053391906105f1565b916000526020600020906003020160006080604051908101604052806000815260200160005481526020016000600281111561056b57fe5b81526020016000600181111561057d57fe5b8152509091909150600082015181600001556020820151816001015560408201518160020160006101000a81548160ff021916908360028111156105bd57fe5b021790555060608201518160020160016101000a81548160ff021916908360018111156105e657fe5b021790555050505050565b81548183558181151161061e5760030281600302836000526020600020918201910161061d9190610662565b5b505050565b60806040519081016040528060008152602001600081526020016000600281111561064a57fe5b81526020016000600181111561065c57fe5b81525090565b6106b691905b808211156106b25760008082016000905560018201600090556002820160006101000a81549060ff02191690556002820160016101000a81549060ff021916905550600301610668565b5090565b905600a165627a7a72305820843d20cc64e3d8a11178926fb12ff5d2f2a6414f4e681164a2836f0dc8c6319a0029",
  "source": "pragma solidity ^0.4.4;\nimport \"./BaseAccount.sol\";\n\ncontract SavingsAccount is BaseAccount {\n  function SavingsAccount() {\n    // constructor\n  }\n\nfunction withdraw(address user, AcctTypeChoices actType, uint amt) internal {\n    Account[]  storage acc = accounts[user];\n    for (uint i = 0; i < acc.length; i++) {\n       if ( actType == (acc[i].actType)) {\n         if( acc[i].balance > 500 ) {\n            acc[i].balance = acc[i].balance - amt;      \n            accounts[user].push(acc[i]);\n         }\n      }\n  }\n  }\n}\n",
  "sourcePath": "/Users/ashokperiaswamy/Desktop/BlockchainTraining/SmartContractSamples/Banking/contracts/SavingsAccount.sol",
  "compiler": {
    "name": "solc",
    "version": "0.4.18+commit.9cf6e910.Emscripten.clang"
  },
  "schemaVersion": "1.0.1",
  "updatedAt": "2018-03-05T23:07:57.103Z"
}