{
  "contractName": "AdharDemo",
  "abi": [
    {
      "constant": false,
      "inputs": [
        {
          "name": "name",
          "type": "string"
        },
        {
          "name": "mobile",
          "type": "string"
        },
        {
          "name": "aadharNumber",
          "type": "uint256"
        }
      ],
      "name": "register",
      "outputs": [],
      "payable": false,
      "stateMutability": "nonpayable",
      "type": "function"
    },
    {
      "inputs": [],
      "payable": false,
      "stateMutability": "nonpayable",
      "type": "constructor"
    }
  ],
  "bytecode": "0x6060604052341561000f57600080fd5b61023a8061001e6000396000f300606060405260043610610041576000357c0100000000000000000000000000000000000000000000000000000000900463ffffffff168063e8a6055814610046575b600080fd5b341561005157600080fd5b6100ed600480803590602001908201803590602001908080601f0160208091040260200160405190810160405280939291908181526020018383808284378201915050505050509190803590602001908201803590602001908080601f016020809104026020016040519081016040528093929190818152602001838380828437820191505050505050919080359060200190919050506100ef565b005b606060405190810160405280848152602001838152602001828152506000808381526020019081526020016000206000820151816000019080519060200190610139929190610169565b506020820151816001019080519060200190610156929190610169565b5060408201518160020155905050505050565b828054600181600116156101000203166002900490600052602060002090601f016020900481019282601f106101aa57805160ff19168380011785556101d8565b828001600101855582156101d8579182015b828111156101d75782518255916020019190600101906101bc565b5b5090506101e591906101e9565b5090565b61020b91905b808211156102075760008160009055506001016101ef565b5090565b905600a165627a7a723058206d072978d6430a260023d0d0c53663f593b13e75becc9489e8db2be043e5d7200029",
  "source": "pragma solidity ^0.4.4;\n\n\ncontract AdharDemo {\n\nstruct Details {\n    string name;\n    string mobileNo;\n    uint aadharNo;\n}\nmapping(uint=>Details) aadharDetails;\n  \n\n\n  function AdharDemo() {\n    // constructor\n  }\n\n  function register (string name, string mobile, uint aadharNumber) {\n    aadharDetails[aadharNumber] = Details(name, mobile, aadharNumber);\n  }\n\n/*\n function getDetail(uint aadharNumber) returns Detail{\n    return aadharDetails[aadharNumber];\n }\n */\n}\n",
  "sourcePath": "/Users/ashokperiaswamy/Documents/Quality Thoughts/SmartContractSamples/CarRoute/contracts/AadharDemo.sol",
  "compiler": {
    "name": "solc",
    "version": "0.4.18+commit.9cf6e910.Emscripten.clang"
  },
  "schemaVersion": "1.0.1",
  "updatedAt": "2018-03-03T04:04:38.915Z"
}