{
  "contractName": "CarRoute",
  "abi": [
    {
      "constant": false,
      "inputs": [
        {
          "name": "location",
          "type": "string"
        }
      ],
      "name": "dropTo",
      "outputs": [],
      "payable": false,
      "stateMutability": "nonpayable",
      "type": "function"
    },
    {
      "constant": false,
      "inputs": [],
      "name": "getCurrentLocation",
      "outputs": [
        {
          "name": "",
          "type": "string"
        }
      ],
      "payable": false,
      "stateMutability": "nonpayable",
      "type": "function"
    },
    {
      "inputs": [],
      "payable": false,
      "stateMutability": "nonpayable",
      "type": "constructor"
    }
  ],
  "bytecode": "0x6060604052341561000f57600080fd5b6103bf8061001e6000396000f30060606040526004361061004c576000357c0100000000000000000000000000000000000000000000000000000000900463ffffffff168063a229090a14610051578063d27bf2e3146100ae575b600080fd5b341561005c57600080fd5b6100ac600480803590602001908201803590602001908080601f0160208091040260200160405190810160405280939291908181526020018383808284378201915050505050509190505061013c565b005b34156100b957600080fd5b6100c1610192565b6040518080602001828103825283818151815260200191508051906020019080838360005b838110156101015780820151818401526020810190506100e6565b50505050905090810190601f16801561012e5780820380516001836020036101000a031916815260200191505b509250505060405180910390f35b806001908051906020019061015292919061023a565b506000805480600101828161016791906102ba565b91600052602060002090016000839091909150908051906020019061018d92919061023a565b505050565b61019a6102e6565b60018054600181600116156101000203166002900480601f0160208091040260200160405190810160405280929190818152602001828054600181600116156101000203166002900480156102305780601f1061020557610100808354040283529160200191610230565b820191906000526020600020905b81548152906001019060200180831161021357829003601f168201915b5050505050905090565b828054600181600116156101000203166002900490600052602060002090601f016020900481019282601f1061027b57805160ff19168380011785556102a9565b828001600101855582156102a9579182015b828111156102a857825182559160200191906001019061028d565b5b5090506102b691906102fa565b5090565b8154818355818115116102e1578183600052602060002091820191016102e0919061031f565b5b505050565b602060405190810160405280600081525090565b61031c91905b80821115610318576000816000905550600101610300565b5090565b90565b61034891905b80821115610344576000818161033b919061034b565b50600101610325565b5090565b90565b50805460018160011615610100020316600290046000825580601f106103715750610390565b601f01602090049060005260206000209081019061038f91906102fa565b5b505600a165627a7a7230582062f497f26cd25e65c0cba1ce077872ca5f2b181d74715b25093c6ad1367747850029",
  "source": "pragma solidity ^0.4.4;\n\n\ncontract CarRoute {\n\n  string[] routes;\n  string currentLocation;\n\n\n  function CarRoute() {\n    // constructor\n  }\n\n  function dropTo (string location) {\n    currentLocation = location;\n    routes.push(location);\n  }\n\n  function getCurrentLocation() returns (string) {\n    return currentLocation;\n  }\n\n  \n}\n",
  "sourcePath": "/Users/ashokperiaswamy/Documents/Quality Thoughts/SmartContractSamples/CarRoute/contracts/CarRoute.sol",
  "compiler": {
    "name": "solc",
    "version": "0.4.18+commit.9cf6e910.Emscripten.clang"
  },
  "schemaVersion": "1.0.1",
  "updatedAt": "2018-03-03T02:58:57.481Z"
}